:0A0B10003F065B4F666D7D077F6FA7
:080B1A000212000002100000AD
:040AEA007F057E0006
:100AEE007D6E7C00AB07AA06D3EB9400EA9400401F
:100AFE0007EB1B70F31A80F0ED1D70011CED4C70AE
:010B0E00E303
:010B0F0022C3
:100A0100AE12AF137C007D0A120A588C0E8D0FAE08
:100A110012AF137C007D64120A587E007F0ACFCD8D
:100A2100CFCECCCE120A588E0C8F0DAE12AF137CE6
:100A3100037DE8120A587E007F64CFCDCFCECCCEA5
:100A4100120A588E0A8F0BAE12AF137C037DE81287
:070A51000A588E088F0922EC
:1009A60020A015120AEA20A00F74E82513F5137487
:1009B600033512F51230A0FD20A114120AEA20A177
:1009C6000E74642513F513E43512F51230A1FD20DB
:1009D600A214120AEA20A20E740A2513F513E435AE
:1009E60012F51230A2FD20A311120AEA20A30B056C
:0B09F60013E5137002051230A3FD2270
:10092B00850E1A850F1BAB0DAA0CAD0BAC0AAF09CC
:02093B00AE0804
:10093D008C168D178A188B19C2B474102FF582740A
:10094D000B3EF583E493F5807F017E00120AEED213
:10095D00B4C2B574102517F582740B3516F583E402
:10096D00932480F580120AEED2B5C2B67410251903
:10097D00F582740B3518F583E493F580120AEED2E7
:10098D00B6C2B77410251BF582740B351AF583E4C6
:09099D0093F580120AEED2B72294
:100AAD007901E9601B1209A6120A0112092B20A473
:100ABD00F1120AEA20A4EBD2AFE4F920A4E480FB02
:100ACD00758901758CFC758A18D2A9D28C12092BE7
:0D0ADD00E513451270F775B0FBC2AF80F055
:03000B00020800E8
:10080000C0E0C0F0C0D075D000C000C004C005C0BA
:1008100006C007758CFC758A180511E51170020574
:1008200010C3940AE510940040647510007511001F
:10083000E513151370021512AE12AF137C007D0A7A
:10084000120A588C0E8D0FAE12AF137C007D64120D
:100850000A587E007F0ACFCDCFCECCCE120A588E5A
:100860000C8F0DAE12AF137C037DE8120A587E0088
:100870007F64CFCDCFCECCCE120A588E0A8F0BAE6E
:1008800012AF137C037DE8120A588E088F09D00737
:0F089000D006D005D004D000D0D0D0F0D0E032C8
:0300000002089F54
:0C089F00787FE4F6D8FD75811B0208E6A6
:100A5800BC000BBE0029EF8DF084FFADF022E4CC82
:100A6800F875F008EF2FFFEE33FEEC33FCEE9DEC4B
:100A7800984005FCEE9DFE0FD5F0E9E4CEFD22ED91
:100A8800F8F5F0EE8420D21CFEADF075F008EF2FDB
:100A9800FFED33FD4007985006D5F0F222C398FDCC
:050AA8000FD5F0EA2269
:1008AB00020AADE493A3F8E493A34003F68001F2AC
:1008BB0008DFF48029E493A3F85407240CC8C3334E
:1008CB00C4540F4420C8834004F456800146F6DF1D
:1008DB00E4800B0102040810204080900B1AE47E88
:1008EB00019360BCA3FF543F30E509541FFEE49312
:1008FB00A360010ECF54C025E060A840B8E493A3D9
:10090B00FAE493A3F8E493A3C8C582C8CAC583CA03
:10091B00F0A3C8C582C8CAC583CADFE9DEE780BEBB
:010B220000D2
:00000001FF
